:020000040000FA
:040000007EEF3FF060
:1068C8007EEF3FF0010E026EFFEC34F01200000E76
:1068D800026EFFEC34F01200596E59C041F558C0F1
:1068E80042F56BEC34F01200F294240ED66E720E60
:1068F800D76E870ED56E120000BF05396734034383
:106908000055004A00410045002F0046004900415B
:10691800004200000000000000000000000000002D
:10692800000000000000000000000000000000005F
:10693800002E034100750074006F0055005300429B
:10694800002D004B0049005400200076003600005E
:106958000000000000000000000000000000000926
:10696800022900010100C0320904000002030000EE
:1069780000092111010001221D00070581034000C3
:1069880001070501034000010600FF0901A10119E3
:10699800012940150026FF0075089540810019015E
:1069A80029409100C01201000200000008D804101C
:1069B800000001010200010403090400010E0001A6
:1069C8006027000E6123622363233050D8A412008D
:1069D800272A2750D8A412002768120078EC34F030
:1069E800F2A4FED7F294000ED56E000E8A6E93685C
:1069F80000EF34F0120038EC36F01F0E3464FBD789
:106A08006DB2F9D70250D8A410D0010E3A6E400EDC
:106A18003B6E050E3C6E400E3D6E010E6BEC38F081
:106A28003AC023F03BC024F01200000E3A6E000E6C
:106A38003B6E050E3C6E400E3D6E010E6BEC38F061
:106A48003AC025F03BC026F0120004012205D8A464
:106A58000ED020511F0B0009D8A409D00E8E030EAA
:106A68002119D8A402D0010E01D0000E316E225196
:106A7800D8A4120020511F0B020AD8A412002451D6
:106A88000F0B0009D8B4120024510F0B4E6E020EE2
:106A98004E601200200E3418D8A412000E8E24BFA7
:106AA80011D024510F0B020DF350150FD96EDA6A6D
:106AB800DECF53F0DDCF54F024510F0B4E6E4E5005
:106AC800190F10D024510F0B020DF350110FD96E6E
:106AD800DA6ADECF53F0DDCF54F024510F0B4E6E3F
:106AE8004E501B0FD96EDA6ADF50526E52B006D084
:106AF800FB0E5314536EFF0E541404D0040E53109F
:106B0800536E5450546E24BF06D024510F0B020DFF
:106B1800F350150F05D024510F0B020DF350110F30
:106B2800D96EDA6A53C0DEFF54C0DDFF030E2119A7
:106B3800D8A423D053C0D9FF54C0DAFFDFAE10D099
:106B480024BF06D024510F0B4E6E4E50190F05D09E
:106B580024510F0B4E6E4E501B0FD96EDA6ADF822E
:106B680053C0D9FF54C0DAFF000EDB8453C0D9FFED
:106B780054C0DAFF000EDB8E1200040E5318536E59
:106B88005450546E53C0D9FF54C0DAFFDFAE1BD047
:106B980053C0D9FF54C0DAFF7F0EDF1653C0D9FFA8
:106BA80054C0DAFF000EDB8C000E476E050E466EF1
:106BB80053C048F054C049F0000E4B6E020E4A6EA6
:106BC8000EEC3FF006D053C0D9FF54C0DAFF000ED8
:106BD800DB8C040E5318536E5450546E52B206D0C8
:106BE80053C0D9FF54C0DAFFDFAE26D0040124BF5A
:106BF80006D024510F0B4E6E4E50190F05D024515C
:106C08000F0B4E6E4E501B0FD96EDA6ADF9253C0CF
:106C1800D9FF54C0DAFF3B0EDF16000E476E050E93
:106C2800466E53C048F054C049F0000E4B6E020E39
:106C38004A6E0EEC3FF006D053C0D9FF54C0DAFFBD
:106C48003B0EDF16040124510F0B4E6E4F6A700E77
:106C58004E24506E0F0E4F20516E50C0D9FF51C0B8
:106C6800DAFFFE0EDF1612003450D8A410D0000E42
:106C78006D6E000E696E160E6F6E9F0E6B6E7B0E3C
:106C8800696E01D06D866DA6FDD7010E346E340491
:106C9800D8B46DBA08D0000E686E000E696E6980AF
:106CA8006988020E346E68B469A403D06894BAEC9B
:106CB8003FF06DA202D0A19A120068B069A005D079
:106CC800D7EC36F0040E346E689068B869A802D024
:106CD800D3EC3FF068AC1AD069AC0ED0000E476E0A
:106CE800730E466E000E486E000E496E000E4B6E17
:106CF800010E4A6E0EEC3FF0689CE2EC34F02D5029
:106D0800D8A42D062D50D8B47BEC3AF068BA69AAFD
:106D180002D05DEC3FF068B269A20FD07F0E476EDB
:106D28004668000E486E000E496E000E4B6E010E4E
:106D38004A6E0EEC3FF0000E6A6E040E346002D00C
:106D4800A19A120069A62DD0000E576E68A629D008
:106D58006CCF37F03730E832E8320F0B2F6E689679
:106D680037B403D02F50190F02D02F501B0FD96EF4
:106D7800DA6ADF702F50D8A403D03EEC3CF00DD077
:106D8800000E476E720E466E370E486E496A000E48
:106D98004B6E000E4A6E0EEC3FF0572A030E5764F6
:106DA800D5D7A19A1200A09A000E6A6E000E686EDE
:106DB800000E706E710E3A6E0F0E3B6E000E3D6E39
:106DC800000E3C6E000E3F6E010E3E6EE9EC3FF089
:106DD800160E6F6E9F0E6B6E7B0E696E000E426E06
:106DE8004250040D000EF324D96E040EF420DA6E1E
:106DF800DE6ADE6ADE6ADD6A422A070E4264F0D77E
:106E08006D8C000E6E6E6D986D9C6896000E0E6E01
:106E1800000E066E000E086E000E076E68B6F5D7F7
:106E2800010E2B6E010E2A6E000E296E000E286EC2
:106E3800000E306E000E426E4250020DF350110FDC
:106E4800D96EDA6A000EDE6E000EDD6E4250020D5B
:106E5800F350150FD96EDA6A000EDE6E000EDD6E85
:106E680042501B0FD96EDA6A000EDF6E4250190FBE
:106E7800D96EDA6A000EDF6E422A010E4264DCD750
:106E8800080E116E040E126E160E706E040E0401BA
:106E9800036F200E026F080E016F040E006F008F43
:106EA800000E396E000E0001606F000E616F000E5B
:106EB800626F000E636F000E276E000E346E1200B4
:106EC80020EE01F02150D9262250DA22DF503B6E05
:106ED8003B50075C000E0858D8A007C03BF03B5059
:106EE800075E000E085A000E3A6E0FD0280E3A249C
:106EF800D96EDA6A040EDA2203C0E1FF04C0E2FFA9
:106F0800DFCFE7FF034A042A3A2A3B503A5CD8A06D
:106F1800EDD707500810D8B432D020EE01F01F503A
:106F2800D9262050DA22080EDF6E20EE02F01F501C
:106F3800D9262050DA22280EDE6E040EDD6E21C01E
:106F4800D9FF22C0DAFFDFBC0DD01FC0D9FF20C097
:106F5800DAFF480EDF6E1FC0D9FF20C0DAFF000E2F
:106F6800DB8E12001FC0D9FF20C0DAFF080EDF6ECB
:106F78001FC0D9FF20C0DAFF000EDB8E120020EE02
:106F880001F01F50D9262050DA22080EDF6E20EEBD
:106F980002F01F50D9262050DA22200EDE6E040E91
:106FA800DD6E1FC0D9FF20C0DAFF040EDF6E1FC0E0
:106FB800D9FF20C0DAFF000EDB8E069E2C50D8A425
:106FC80012007BEC3AF01200800E04012019D8A4BC
:106FD8001200C00E0E6E70D0AD0E0B6E0B50D8A402
:106FE800690E0C6E000E106E120E0F6E12002251FA
:106FF800D8A43BD02251040F3A6E3AC0F6FF690E6E
:10700800F76E0900F5CF0BF0690E0C6E020E0B241B
:107018003A6E000E0C203B6E3AC0F6FF3BC0F7FFFD
:10702800F86A070EF76403D00800F55005D0F6CFCC
:10703800E1FFF7CFE2FFE7500F6E030E0B243A6E25
:10704800000E0C203B6E3AC0F6FF3BC0F7FFF86A13
:10705800070EF76403D00800F55005D0F6CFE1FF1E
:10706800F7CFE2FFE750106E1200000E0E6E12000E
:10707800030E2261FAD72251010F3A6E3AC0F6FF89
:10708800690EF76E0900F5CF0BF0690E0C6E0BC098
:10709800F6FF0CC0F7FFF86A070EF76403D0080084
:1070A800F55005D0F6CFE1FFF7CFE2FFE7503A6E93
:1070B8003A500F6E106A12002351010AD8B48CD7C7
:1070C800030AD8B494D7010AD8B4D2D7CED7406E21
:1070D8003A50D8B405D04050020DF350110F04D0E7
:1070E8004050020DF350150FD96EDA6ADECF41F029
:1070F800DDCF42F041504210D8A405D0000E3A6EC0
:10710800000E3B6E120020EE02F04150D92642508C
:10711800DA223BC0DEFF3CC0DDFF20EE01F041502B
:10712800D9264250DA223DC0DFFF41C0D9FF42C014
:10713800DAFF400EDF1641C0D9FF42C0DAFF000E69
:10714800DB8641C0D9FF42C0DAFF000EDB8E3A5021
:10715800D8B413D04050020DF350110FD96EDA6A2B
:10716800DECF3EF0DDCF3FF0040E3E1A000E3F1A90
:107178004050020DF350110F12D04050020DF35041
:10718800150FD96EDA6ADECF3EF0DDCF3FF0040E80
:107198003E1A000E3F1A4050020DF350150FD96EDB
:1071A800DA6A3EC0DEFF3FC0DDFF41C03AF042C0B0
:1071B8003BF012006D980EBE38D006AE0BD0020E12
:1071C800326E2850D8B489EC3CF0000E2A6E000EBE
:1071D8002B6E120020EE01F01F50D9262050DA2223
:1071E800080EDF6E20EE02F01F50D9262050DA225A
:1071F800200EDE6E040EDD6E1FC0D9FF20C0DAFF40
:107208000C0EDF6E1FC0D9FF20C0DAFF000EDB8E28
:1072180011C0D9FF12C0DAFF040EDF6E11C0D9FF0A
:1072280012C0DAFF000EDB8E1200040120AF10D06E
:10723800010E326E2950D8B489EC3CF0000E2A6E4B
:10724800000E2B6E2C50D8A412007BEC3AF01200E2
:10725800020E326E20EE01F01F50D9262050DA229D
:10726800080EDF6E20EE02F01F50D9262050DA22D9
:10727800200EDE6E040EDD6E1FC0D9FF20C0DAFFBF
:10728800040EDF6E1FC0D9FF20C0DAFF000EDB8EB0
:10729800D5D7040120511F0BE806D8A412002451A9
:1072A800D8A41200060E2119D8B41BD022D0390454
:1072B800D8A41FD0790E0B6E0B50D8A4690E0C6E93
:1072C800000E106E090E0F6EC00E0E6E12D0900ECC
:1072D8000B6E0B50D8A4690E0C6E000E106E1D0EAE
:1072E800F2D72351210AD8B4E2D7030AD8B4EFD78A
:1072F800010A2039E832030BE806D8A412001ED090
:10730800360E0B6E0C6A000E106E010E0F6EC10E5B
:107318000E6E1200800E0E6E23C436F01200350E6B
:107328000B6E0C6A000E106E010E0F6E810E0E6E43
:107338001200800E0E6E22C435F012002151010A8F
:10734800D8B41200030AD8B4DBD7010AD8B4E7D7F7
:107358000A0AD8B41200030AD8B4DCD7010AD8A4A0
:107368001200E7D7080E3A6E105010E1080E0F5CB5
:10737800D8B00CD00FC03AF03350D8A402D0010EC8
:1073880004D03304D8A402D0020E336E3A500F5EF4
:10739800000E105A20EE01F01150D9261250DA22B0
:1073A8003AC0DFFF280E1D6E040E1E6E0EA01BD005
:1073B80038D00BC0F6FF0CC0F7FFF86A1DC0D9FF24
:1073C8001EC0DAFF070EF76403D00800F55005D099
:1073D800F6CFE1FFF7CFE2FFE750DF6E0B4A0C2A4A
:1073E8001D4A1E2A3A063A50D8B41200E2D70BC0FA
:1073F800F6FF0CC0F7FFF86A1DC0D9FF1EC0DAFF00
:10740800070EF76403D00800F55005D0F6CFE1FF6A
:10741800F7CFE2FFE750DF6E0B4A0C2A1D4A1E2AFF
:107428003A063A50D8B41200E2D70E8E710E3A6E70
:107438000F0E3B6E000E3D6E000E3C6E000E3F6E52
:10744800010E3E6EE9EC3FF0000E3A6E040E3B6E04
:10745800000E3D6E000E3C6E000E3F6E200E3E6E1E
:10746800E9EC3FF06D8C000E4E6E4E501B0FD96E3E
:10747800DA6A000EDF6E4E50190FD96EDA6A000E06
:10748800DF6E4E2A010E4E64F0D7380E3A6E3B6A14
:10749800000E3D6E000E3C6E000E3F6E010E3E6EFD
:1074A800E9EC3FF06D9C080E116E040E126E000E92
:1074B800216E040E226E21C01FF022C020F022C4CB
:1074C80039F03950D8A403D0100E346E1200000ED3
:1074D800476E010E466E390E486E496A000E4B6EB5
:1074E800010E4A6E0EEC3FF0200E346E12002B5047
:1074F800D8A41200010E2B6E2A50D8A41200010E37
:107508002A6E020E3218D8A415D020EE01F01150C0
:10751800D9261250DA22000EDF6E11C0D9FF12C030
:10752800DAFF480EDF6E11C0D9FF12C0DAFF000E75
:10753800DB8E12003204D8A41200000E2E6E20EE4C
:1075480001F02150D9262250DA22080EDF6E20EEF3
:1075580002F02150D9262250DA22200EDE6E040EC7
:10756800DD6E21C0D9FF22C0DAFF040EDF6E21C014
:10757800D9FF22C0DAFF000EDB8E010E2E6E20EE40
:1075880001F01F50D9262050DA22080EDF6E20EEB7
:1075980002F01F50D9262050DA22200EDE6E040E8B
:1075A800DD6E1FC0D9FF20C0DAFF800EDF6E12002B
:1075B80004012039E832030B0009D8A4120035D0A1
:1075C8000E8E080E346E1200E8EC37F0120019EC3B
:1075D8003AF01200390E0B6E0C6A0E80010E0F6E17
:1075E8000E8E1200D4EC3CF0120029EC35F012009B
:1075F8002451380F556E55C00BF0EED70E8E24511E
:10760800380FD96EDA6A22C4DFFF1200000E476E07
:10761800020E466E000E486E000E496E000E4B6E4E
:10762800000E4A6E0EEC3FF012002151000AD8B449
:10763800D9D7010AD8B4D9D7020AD8B4D6D7060AF6
:10764800D8B4BED7030AD8B4BFD7010AD8B4DED796
:107658000F0AD8B4BFD7010AD8B4B9D7030AD8B427
:10766800C7D7010AD8B4CAD7070A120011C0D9FF70
:1076780012C0DAFF000EDFBC010E3B6E040E1118BB
:10768800116E1250126E080E3418D8A40BD00401D3
:1076980022517F0B6E6E6E50D8B402D0100E01D0FE
:1076A800040E346E3204D8A43AD020EE02F0115001
:1076B800D9261250DA22280EDE6E040EDD6EB6ECE4
:1076C80039F0020E3318D8A40DD011C0D9FF12C05A
:1076D800DAFF040EDF6E11C0D9FF12C0DAFF000E08
:1076E800DB8E12003B50D8A40DD011C0D9FF12C0B8
:1076F800DAFF480EDF6E11C0D9FF12C0DAFF000EA4
:10770800DB8E120011C0D9FF12C0DAFF080EDF6E3F
:1077180011C0D9FF12C0DAFF000EDB8E120006BEC0
:10772800069E000E326E120064C03AF065C03BF04F
:1077380066C03CF067C03DF0000E3F6E000E3E6E26
:10774800E00E81123EC0F6FF3FC0F7FFF86AA68E32
:10775800A69CA684A688550EA76EAA0EA76EA6821A
:10776800A6B2FED7A6941F0E8116400E3E26000E26
:107778003F22400E3E5C680E3F58D8A0E1D7000E6D
:10778800F66E000EF76E000EF86E000E3F6E000EDD
:107798003E6E3F500BE1040E3E5CD8B007D03E5021
:1077A8003A0FD96EDA6ADF50F56E01D0F5680D0030
:1077B8003E4A3F2A3F5004E1200E3E5CD8A0E9D75C
:1077C8000A00A40EA66E550EA76EAA0EA76EA68274
:1077D800A6B2FED7A6948A8A1200D7EC36F01F0EFE
:1077E800936E020E006E8A8A060E016E78EC34F0F3
:1077F8003AD0F2A417D0012E05D0010E006EF294F3
:10780800000ED56E78EC34F08AAA02D0010E01D0B1
:10781800000EFF0A5C6E5C3A5C468A505C18DF0B0F
:107828005C188A6E38EC36F01F0E34641CD06DB2CA
:107838001AD0000E3A6E000E3B6E050E3C6E400EDE
:107848003D6E010E6BEC38F03AC025F03BC026F0D7
:1078580001C5E8FF020AD8A406D002C5E8FF010A5C
:10786800D8B439EC3EF00004D8A4C3D7F2EC34F015
:1078780000EF00F02D0E2D6E37C056F0FD0E561697
:10788800D8A43BD037C056F0D89056323F0E561683
:107898005650040D000EF324216E040EF420226EBF
:1078A80021C01FF022C020F0040E1F181F6E2050A8
:1078B800206E21C0D9FF22C0DAFFDF30E8320F0B7B
:1078C8000D0AD8A417D0200E3A6E040E3B6E20EE97
:1078D80002F02150D9262250DA22DECF3CF0DDCF4B
:1078E8003DF0000E3F6E080E3E6E3BEC3FF066EC3E
:1078F8003DF01200B3EC3EF012003750FD0B040AC5
:10790800D8A412003AEC3BF01200000E296E000ECB
:10791800286E020E3218D8A41FD020EE01F01F5096
:10792800D9262050DA22080EDF6E20EE02F01F5012
:10793800D9262050DA22280EDE6E040EDD6E1FC016
:10794800D9FF20C0DAFF480EDF6E1FC0D9FF20C064
:10795800DAFF000EDB8E12000F500401265D105076
:107968002759D8B004D026C40FF027C410F0B6ECBD
:1079780039F020EE02F01150D9261250DA22280EE2
:10798800DE6E040EDD6E11C0D9FF12C0DAFF480E9C
:10799800DF6E11C0D9FF12C0DAFF000EDB8E1200B5
:1079A800000E0401286F000E296F30D00E8E3104AE
:1079B800D8A437D0288335D00E8E33D00E8E2451DC
:1079C8000F0B0009D8B42DD024BF06D024510F0BBB
:1079D800020DF350150F05D024510F0B020DF35073
:1079E800110FD96EDA6ADECF3AF0DDCF3BF03AC03C
:1079F800D9FF3BC0DAFFDFAE14D03AC0D9FF3BC095
:107A0800DAFFDFA40ED0010E286F0BD020511F0B18
:107A1800000AD8B4CBD7010AD8B4CED7030AD8B451
:107A2800CDD70EAE1200280E0B6E040E0C6E0E8013
:107A3800020E0F6E120004C53AF03A503C6E3B6AD3
:107A480025EE03F0DF503D6E3E6A3B503D103F6E21
:107A58003C503E10406E200E3F243A6E000E4020EF
:107A68003B6E3A04800E3B58D8B006D03FC03AF07F
:107A78001F0E3A16D8B404D0E00E8112FF0E120081
:107A8800000EF86E04C5F7FF03C5F6FF000E416E41
:107A9800050E4124D96EDA6A050EDA22DF50F56E3A
:107AA8000D00412A1F0E4164F3D70A00A40EA66EEA
:107AB800550EA76EAA0EA76EA682A6B2FED7A694EA
:107AC800030E1200000E336E000E2C6E000E296E8F
:107AD800000E286E000E2E6E000E326E11C0D9FFF9
:107AE80012C0DAFF7F0EDF16040E1118116E125045
:107AF800126E11C0D9FF12C0DAFF7F0EDF16040E16
:107B08001118116E1250126E1FC0D9FF20C0DAFF73
:107B18007F0EDF16000E0E6E000E106E000E0F6E3A
:107B2800000E066E000E086E000E076EDCEC3AF0D2
:107B3800000E476E030E466E000E486E000E496E2C
:107B4800000E4B6E000E4A6E0EEC3FF0DEEC38F085
:107B58001200010E586E030E70EC34F0030E006E26
:107B6800E00E811234D066EC34F021D01FEC3DF0E9
:107B78005B6E5BC058F0030E70EC34F08150E00B84
:107B8800FF0A5A6E8150E0095A14816E1AD0020E0B
:107B9800006E020E586E030E70EC34F012D001C560
:107BA800E8FF080AD8A40DD0080E006E0AD025EE0A
:107BB80002F0DF50020AD8B4EAD7010AD8B4D6D7FF
:107BC800EED7000EE8CF01F5000EE8CF02F5030E60
:107BD8000018D8B4C8D71F0E81168A8A12003F6EC3
:107BE800000E406E040E416E3A503B6E3C6AD890CF
:107BF8003B363C363F503D6E3E6AD8903D363E3669
:107C0800D8903D363E363B503D263C503E22D890DB
:107C18003D363E36D8903D363E363D5040263E50A5
:107C2800412240C0D9FF41C0DAFFDF9E3A50D8A4B4
:107C380005D03F50020DF350150F04D03F50020DF0
:107C4800F350110FD96EDA6A40C0DEFF41C0DDFF84
:107C580040C0D9FF41C0DAFFDF9C20EE04F040505D
:107C6800D9264150DA22DF8C1200010E586E020E1E
:107C780070EC34F08A8A33D066EC34F01DD0ADEC69
:107C88003DF02AD098EC3BF0020E586E070E70ECCF
:107C980034F022D078EC3EF01FD0010E006E010EB9
:107CA800586E010E70EC34F017D0080E0018D8A4E6
:107CB80013D0E00E8112FFD725EE01F0DF50010A44
:107CC800D8B4EBD7020AD8B4DAD7070AD8B4E2D7BF
:107CD800030AD8B4D7D7E9D7000EE8CF01F5020ECA
:107CE8000018D8A41200C8D7010E586E040E70EC04
:107CF80034F0040E006E8A8C2AD066EC34F018D06A
:107D0800E1EC3EF0030E586E040E70EC34F0815036
:107D1800E00BFF0A5A6E8150E0095A14816E11D0A7
:107D2800020E006E020E586E040E70EC34F009D08C
:107D380025EE02F0DF50020AD8B4F2D7010AD8B40F
:107D4800DFD7000EE8CF01F5000EE8CF02F5040EEC
:107D58000018D8B4D2D71F0E81168A8A1200020ED4
:107D68003218D8A403D064EC37F01200000E326E3B
:107D78002E50D8A41FD020EE01F01F50D926205035
:107D8800DA22080EDF6E20EE02F01F50D9262050AE
:107D9800DA22200EDE6E040EDD6E1FC0D9FF20C071
:107DA800DAFF0C0EDF6E1FC0D9FF20C0DAFF000E0D
:107DB800DB8E1200000E2E6E120004C53AF03A5007
:107DC8003C6E3B6A25EE03F0DF503D6E3E6A3B5049
:107DD8003D123C503E123DC0F6FF3EC0F7FFF86A28
:107DE800F7BEF80604C544F503C543F5000E3F6E1B
:107DF8000AD00900450E3F24D96EDA6A050EDA2248
:107E0800F5CFDFFF3F2A25EE05F0DE503F5CD8B006
:107E18001200EFD71CD0000E236E000E246E1E0E2B
:107E2800426E010E9EEC3FF0000E3A6E000E3B6E65
:107E3800050E3C6E400E3D6E010E6BEC38F03AC0FC
:107E480025F03BC026F012004DEC39F0120046C078
:107E58004CF047C04DF04D50000AD8A412004C50C9
:107E6800010AD8B4D8D7020AD8A41200EDD73CC06A
:107E780042F03DC043F03AC040F03BC041F010D062
:107E880042C0D9FF43C0DAFFDF50446E424A432A5A
:107E980040C0D9FF41C0DAFF44C0DFFF404A412A51
:107EA8003E06D8A03F063E28EBE13F28D8B4120092
:107EB800E7D770A01DD021C0D9FF22C0DAFF800EFD
:107EC800DE18D8A414D011C0D9FF12C0DAFF840E6E
:107ED800DE18D8A40CD021C0D9FF22C0DAFF0C0EBE
:107EE800DF6E21C0D9FF22C0DAFF000EDB8E709052
:107EF800689A1200C80EF66E680EF76E000EF86EDD
:107F080000EE64F010EE04F00900F5CFEEFFE55046
:107F1800E150FAE10001636B626B616B606B00EE2C
:107F280003F0370EEE6AE806FDE1000EF86E000178
:107F3800F1EF3BF0456E42A405D0000E3A6E455075
:107F4800F3EC3DF042A205D0010E3A6E4550F3EC39
:107F58003DF0700E4524436E446A0F0E442243C020
:107F6800D9FF44C0DAFF42C0DFFF1200000E306EB6
:107F7800000E476E740E466E000E486E000E496E77
:107F8800000E4B6E000E4A6E0EEC3FF06D92699437
:107F980001D0689468B4FDD7000E276E120069847A
:107FA80068986D82010E306E000E276E000E476EC7
:107FB800750E466E000E486E000E496E000E4B6E32
:107FC800000E4A6E0EEC3FF012003AC040F03BC083
:107FD80041F008D040C0D9FF41C0DAFF3CC0DFFF04
:107FE800404A412A3E06D8A03F063E28F3E13F28F2
:067FF800D8B41200EFD71F
:020000040020DA
:08000000FFFFFFFFFFFFFFFF00
:020000040030CA
:0E000000230E3F1EFF8181FF0FC00FE00F4057
:00000001FF
